S00E00007461736B20392E737265630A
S11300000C9434000C943E000C943E000C943E007E
S11300100C943E000C943E000C943E000C943E0064
S11300200C943E000C943E000C943E000C943E0054
S11300300C943E000C943E000C944B000C943E0037
S11300400C9440000C943E000C943E000C943E0032
S11300500C943E000C943E000C943E000C943E0024
S11300600C943E000C943E0011241FBECFEFD8E048
S1130070DEBFCDBF0E9461000C9464000C940000AC
S11300801F920F920FB60F92112459980F900FBE22
S11300900F901F9018951F920F920FB60F92112474
S11300A0599A0F900FBE0F901F901895519A599816
S11300B081E085BD83E080936E0088EC87BD7894F1
S10F00C008950E945600FFCFF894FFCF73
S9030000FC
