S00E00005461736B31322E7372656320
S11300000C9434000C943E000C943E000C943E007E
S11300100C943E000C943E000C943E000C943E0064
S11300200C943E000C943E000C943E000C943E0054
S11300300C943E000C943E000C943E000C943E0044
S11300400C943E000C943E000C943E000C943E0034
S11300500C943E000C943E000C943E000C943E0024
S11300600C943E000C943E0011241FBECFEFD8E048
S1130070DEBFCDBF0E944D000C9450000C940000D4
S11300808CB580648CBD8CB580618CBD8CB588606A
S11300908CBD84B1896384B908950E944000FFCF68
S10700A0F894FFCFFE
S9030000FC
